{
  "_format": "hh-sol-artifact-1",
  "contractName": "KingOfTheHill",
  "sourceName": "contracts/KingOfTheHill.sol",
  "abi": [
    {
      "inputs": [],
      "stateMutability": "nonpayable",
      "type": "constructor"
    },
    {
      "inputs": [
        {
          "internalType": "address",
          "name": "owner",
          "type": "address"
        }
      ],
      "name": "OwnableInvalidOwner",
      "type": "error"
    },
    {
      "inputs": [
        {
          "internalType": "address",
          "name": "account",
          "type": "address"
        }
      ],
      "name": "OwnableUnauthorizedAccount",
      "type": "error"
    },
    {
      "inputs": [],
      "name": "ReentrancyGuardReentrantCall",
      "type": "error"
    },
    {
      "anonymous": false,
      "inputs": [
        {
          "indexed": true,
          "internalType": "address",
          "name": "oldDev",
          "type": "address"
        },
        {
          "indexed": true,
          "internalType": "address",
          "name": "newDev",
          "type": "address"
        }
      ],
      "name": "DevAddressUpdated",
      "type": "event"
    },
    {
      "anonymous": false,
      "inputs": [
        {
          "indexed": true,
          "internalType": "address",
          "name": "claimer",
          "type": "address"
        },
        {
          "indexed": false,
          "internalType": "uint256",
          "name": "amount",
          "type": "uint256"
        }
      ],
      "name": "DividendsClaimed",
      "type": "event"
    },
    {
      "anonymous": false,
      "inputs": [
        {
          "indexed": true,
          "internalType": "address",
          "name": "winner",
          "type": "address"
        },
        {
          "indexed": false,
          "internalType": "uint256",
          "name": "winnerPayout",
          "type": "uint256"
        },
        {
          "indexed": false,
          "internalType": "uint256",
          "name": "burned",
          "type": "uint256"
        },
        {
          "indexed": false,
          "internalType": "uint256",
          "name": "dividends",
          "type": "uint256"
        },
        {
          "indexed": false,
          "internalType": "uint256",
          "name": "devFee",
          "type": "uint256"
        },
        {
          "indexed": false,
          "internalType": "uint256",
          "name": "round",
          "type": "uint256"
        }
      ],
      "name": "GameEnded",
      "type": "event"
    },
    {
      "anonymous": false,
      "inputs": [
        {
          "indexed": false,
          "internalType": "uint256",
          "name": "newRound",
          "type": "uint256"
        }
      ],
      "name": "GameRestarted",
      "type": "event"
    },
    {
      "anonymous": false,
      "inputs": [
        {
          "indexed": true,
          "internalType": "address",
          "name": "buyer",
          "type": "address"
        },
        {
          "indexed": false,
          "internalType": "uint256",
          "name": "amount",
          "type": "uint256"
        },
        {
          "indexed": false,
          "internalType": "uint256",
          "name": "keysBought",
          "type": "uint256"
        },
        {
          "indexed": false,
          "internalType": "uint256",
          "name": "newKingCrownedAt",
          "type": "uint256"
        },
        {
          "indexed": false,
          "internalType": "uint256",
          "name": "round",
          "type": "uint256"
        }
      ],
      "name": "KeysPurchased",
      "type": "event"
    },
    {
      "anonymous": false,
      "inputs": [
        {
          "indexed": true,
          "internalType": "address",
          "name": "previousOwner",
          "type": "address"
        },
        {
          "indexed": true,
          "internalType": "address",
          "name": "newOwner",
          "type": "address"
        }
      ],
      "name": "OwnershipTransferred",
      "type": "event"
    },
    {
      "anonymous": false,
      "inputs": [],
      "name": "Paused",
      "type": "event"
    },
    {
      "anonymous": false,
      "inputs": [
        {
          "indexed": false,
          "internalType": "uint256",
          "name": "oldWindow",
          "type": "uint256"
        },
        {
          "indexed": false,
          "internalType": "uint256",
          "name": "newWindow",
          "type": "uint256"
        }
      ],
      "name": "TimeWindowUpdated",
      "type": "event"
    },
    {
      "anonymous": false,
      "inputs": [],
      "name": "Unpaused",
      "type": "event"
    },
    {
      "inputs": [],
      "name": "DEAD_ADDRESS",
      "outputs": [
        {
          "internalType": "address",
          "name": "",
          "type": "address"
        }
      ],
      "stateMutability": "view",
      "type": "function"
    },
    {
      "inputs": [],
      "name": "MIN_BUY",
      "outputs": [
        {
          "internalType": "uint256",
          "name": "",
          "type": "uint256"
        }
      ],
      "stateMutability": "view",
      "type": "function"
    },
    {
      "inputs": [],
      "name": "buyKeys",
      "outputs": [],
      "stateMutability": "payable",
      "type": "function"
    },
    {
      "inputs": [],
      "name": "claimDividends",
      "outputs": [],
      "stateMutability": "nonpayable",
      "type": "function"
    },
    {
      "inputs": [],
      "name": "currentKing",
      "outputs": [
        {
          "internalType": "address",
          "name": "",
          "type": "address"
        }
      ],
      "stateMutability": "view",
      "type": "function"
    },
    {
      "inputs": [],
      "name": "currentRound",
      "outputs": [
        {
          "internalType": "uint256",
          "name": "",
          "type": "uint256"
        }
      ],
      "stateMutability": "view",
      "type": "function"
    },
    {
      "inputs": [],
      "name": "devAddress",
      "outputs": [
        {
          "internalType": "address",
          "name": "",
          "type": "address"
        }
      ],
      "stateMutability": "view",
      "type": "function"
    },
    {
      "inputs": [],
      "name": "dividendPerKey",
      "outputs": [
        {
          "internalType": "uint256",
          "name": "",
          "type": "uint256"
        }
      ],
      "stateMutability": "view",
      "type": "function"
    },
    {
      "inputs": [],
      "name": "dividendPool",
      "outputs": [
        {
          "internalType": "uint256",
          "name": "",
          "type": "uint256"
        }
      ],
      "stateMutability": "view",
      "type": "function"
    },
    {
      "inputs": [],
      "name": "emergencyWithdraw",
      "outputs": [],
      "stateMutability": "nonpayable",
      "type": "function"
    },
    {
      "inputs": [],
      "name": "endGame",
      "outputs": [],
      "stateMutability": "nonpayable",
      "type": "function"
    },
    {
      "inputs": [],
      "name": "getGameInfo",
      "outputs": [
        {
          "internalType": "uint256",
          "name": "round",
          "type": "uint256"
        },
        {
          "internalType": "uint256",
          "name": "pot",
          "type": "uint256"
        },
        {
          "internalType": "address",
          "name": "king",
          "type": "address"
        },
        {
          "internalType": "uint256",
          "name": "timeLeft",
          "type": "uint256"
        },
        {
          "internalType": "uint256",
          "name": "keys",
          "type": "uint256"
        },
        {
          "internalType": "bool",
          "name": "active",
          "type": "bool"
        }
      ],
      "stateMutability": "view",
      "type": "function"
    },
    {
      "inputs": [],
      "name": "isGameActive",
      "outputs": [
        {
          "internalType": "bool",
          "name": "",
          "type": "bool"
        }
      ],
      "stateMutability": "view",
      "type": "function"
    },
    {
      "inputs": [
        {
          "internalType": "address",
          "name": "",
          "type": "address"
        }
      ],
      "name": "keysOwned",
      "outputs": [
        {
          "internalType": "uint256",
          "name": "",
          "type": "uint256"
        }
      ],
      "stateMutability": "view",
      "type": "function"
    },
    {
      "inputs": [],
      "name": "kingCrownedAt",
      "outputs": [
        {
          "internalType": "uint256",
          "name": "",
          "type": "uint256"
        }
      ],
      "stateMutability": "view",
      "type": "function"
    },
    {
      "inputs": [
        {
          "internalType": "address",
          "name": "",
          "type": "address"
        }
      ],
      "name": "lastDividendPoints",
      "outputs": [
        {
          "internalType": "uint256",
          "name": "",
          "type": "uint256"
        }
      ],
      "stateMutability": "view",
      "type": "function"
    },
    {
      "inputs": [],
      "name": "owner",
      "outputs": [
        {
          "internalType": "address",
          "name": "",
          "type": "address"
        }
      ],
      "stateMutability": "view",
      "type": "function"
    },
    {
      "inputs": [],
      "name": "pause",
      "outputs": [],
      "stateMutability": "nonpayable",
      "type": "function"
    },
    {
      "inputs": [],
      "name": "paused",
      "outputs": [
        {
          "internalType": "bool",
          "name": "",
          "type": "bool"
        }
      ],
      "stateMutability": "view",
      "type": "function"
    },
    {
      "inputs": [
        {
          "internalType": "address",
          "name": "account",
          "type": "address"
        }
      ],
      "name": "pendingDividends",
      "outputs": [
        {
          "internalType": "uint256",
          "name": "",
          "type": "uint256"
        }
      ],
      "stateMutability": "view",
      "type": "function"
    },
    {
      "inputs": [],
      "name": "renounceOwnership",
      "outputs": [],
      "stateMutability": "nonpayable",
      "type": "function"
    },
    {
      "inputs": [
        {
          "internalType": "address",
          "name": "newDev",
          "type": "address"
        }
      ],
      "name": "setDevAddress",
      "outputs": [],
      "stateMutability": "nonpayable",
      "type": "function"
    },
    {
      "inputs": [
        {
          "internalType": "uint256",
          "name": "newWindow",
          "type": "uint256"
        }
      ],
      "name": "setTimeWindow",
      "outputs": [],
      "stateMutability": "nonpayable",
      "type": "function"
    },
    {
      "inputs": [],
      "name": "timeRemaining",
      "outputs": [
        {
          "internalType": "uint256",
          "name": "",
          "type": "uint256"
        }
      ],
      "stateMutability": "view",
      "type": "function"
    },
    {
      "inputs": [],
      "name": "timeWindow",
      "outputs": [
        {
          "internalType": "uint256",
          "name": "",
          "type": "uint256"
        }
      ],
      "stateMutability": "view",
      "type": "function"
    },
    {
      "inputs": [],
      "name": "totalKeys",
      "outputs": [
        {
          "internalType": "uint256",
          "name": "",
          "type": "uint256"
        }
      ],
      "stateMutability": "view",
      "type": "function"
    },
    {
      "inputs": [],
      "name": "totalPot",
      "outputs": [
        {
          "internalType": "uint256",
          "name": "",
          "type": "uint256"
        }
      ],
      "stateMutability": "view",
      "type": "function"
    },
    {
      "inputs": [
        {
          "internalType": "address",
          "name": "newOwner",
          "type": "address"
        }
      ],
      "name": "transferOwnership",
      "outputs": [],
      "stateMutability": "nonpayable",
      "type": "function"
    },
    {
      "inputs": [
        {
          "internalType": "address",
          "name": "",
          "type": "address"
        }
      ],
      "name": "unclaimedDividends",
      "outputs": [
        {
          "internalType": "uint256",
          "name": "",
          "type": "uint256"
        }
      ],
      "stateMutability": "view",
      "type": "function"
    },
    {
      "inputs": [],
      "name": "unpause",
      "outputs": [],
      "stateMutability": "nonpayable",
      "type": "function"
    },
    {
      "stateMutability": "payable",
      "type": "receive"
    }
  ],
  "bytecode": "0x608060405261012c60025534801561001657600080fd5b506001600055338061004257604051631e4fbdf760e01b81526000600482015260240160405180910390fd5b61004b81610068565b50600d80546001600160a01b0319163317905560016003556100ba565b600180546001600160a01b038381166001600160a01b0319831681179093556040519116919082907f8be0079c531659141344cd1fd0a4f28419497f9722a3daafe3b4186f6b6457e090600090a35050565b611570806100c96000396000f3fe6080604052600436106101d15760003560e01c8063806985f7116100f7578063a17dc40611610095578063db2e21bc11610064578063db2e21bc14610547578063e3cfef601461055c578063f2fde38b14610571578063f5b457141461059157600080fd5b8063a17dc406146104c4578063c7926458146104f1578063d0d41fe114610511578063d2f343c71461053157600080fd5b80638c3c63fe116100d15780638c3c63fe146104685780638d3319961461047e5780638da5cb5b1461049e5780639371c137146104bc57600080fd5b8063806985f7146104105780638456cb591461043d5780638a19c8bc1461045257600080fd5b80633f4ba83a1161016f578063668038e01161013e578063668038e0146103bb5780636cbc2ded146103d05780636cf44e47146103e5578063715018a6146103fb57600080fd5b80633f4ba83a14610357578063488bdabc1461036e5780634e6fd6c4146103845780635c975abb1461039a57600080fd5b806324b570a9116101ab57806324b570a9146102d857806330d172d5146102ee5780633ad10ef6146103045780633af96b901461033c57600080fd5b80630490c71c146102215780630c0ef2b0146102615780631746bd1b1461028657600080fd5b3661021c5760405162461bcd60e51b81526020600482015260166024820152752ab9b290313abca5b2bcb9941490333ab731ba34b7b760511b60448201526064015b60405180910390fd5b600080fd5b34801561022d57600080fd5b5061024e61023c366004611464565b60096020526000908152604090205481565b6040519081526020015b60405180910390f35b34801561026d57600080fd5b506102766105b1565b6040519015158152602001610258565b34801561029257600080fd5b5061029b6105e1565b6040805196875260208701959095526001600160a01b039093169385019390935260608401526080830191909152151560a082015260c001610258565b3480156102e457600080fd5b5061024e60045481565b3480156102fa57600080fd5b5061024e600a5481565b34801561031057600080fd5b50600d54610324906001600160a01b031681565b6040516001600160a01b039091168152602001610258565b34801561034857600080fd5b5061024e66038d7ea4c6800081565b34801561036357600080fd5b5061036c610653565b005b34801561037a57600080fd5b5061024e60075481565b34801561039057600080fd5b5061032461dead81565b3480156103a657600080fd5b50600d5461027690600160a01b900460ff1681565b3480156103c757600080fd5b5061036c610693565b3480156103dc57600080fd5b5061036c6107db565b3480156103f157600080fd5b5061024e60065481565b34801561040757600080fd5b5061036c610c32565b34801561041c57600080fd5b5061024e61042b366004611464565b600c6020526000908152604090205481565b34801561044957600080fd5b5061036c610c44565b34801561045e57600080fd5b5061024e60035481565b34801561047457600080fd5b5061024e600b5481565b34801561048a57600080fd5b5061036c61049936600461148d565b610c8a565b3480156104aa57600080fd5b506001546001600160a01b0316610324565b61036c610d2c565b3480156104d057600080fd5b5061024e6104df366004611464565b60086020526000908152604090205481565b3480156104fd57600080fd5b5061024e61050c366004611464565b610efc565b34801561051d57600080fd5b5061036c61052c366004611464565b610fb7565b34801561053d57600080fd5b5061024e60025481565b34801561055357600080fd5b5061036c611059565b34801561056857600080fd5b5061024e6111c8565b34801561057d57600080fd5b5061036c61058c366004611464565b611214565b34801561059d57600080fd5b50600554610324906001600160a01b031681565b6005546000906001600160a01b0316158015906105dc57506002546006546105d991906114bc565b42105b905090565b6003546004546005546001600160a01b0316600080808315801590610614575060025460065461061191906114bc565b42105b1561063f574260025460065461062a91906114bc565b61063491906114d5565b925060019050610646565b5060009150815b6007549150909192939495565b61065b611252565b600d805460ff60a01b191690556040517fa45f47fdea8a1efdd9029a5691c7f759c32b7c698632b563573e155625d1693390600090a1565b61069b61127f565b6106a4336112a9565b33600090815260096020526040902054806106f95760405162461bcd60e51b81526020600482015260156024820152744e6f206469766964656e647320746f20636c61696d60581b6044820152606401610213565b336000818152600960205260408082208290555190919083908381818185875af1925050503d806000811461074a576040519150601f19603f3d011682016040523d82523d6000602084013e61074f565b606091505b50509050806107985760405162461bcd60e51b8152602060048201526015602482015274111a5d9a59195b990818db185a5b4819985a5b1959605a1b6044820152606401610213565b60405182815233907f16b8533c95f66ab8c192c98ddcf5031bcb3ee6f4022988bdadd57d3422da30739060200160405180910390a250506107d96001600055565b565b6107e361127f565b600d54600160a01b900460ff161561082e5760405162461bcd60e51b815260206004820152600e60248201526d11d85b59481a5cc81c185d5cd95960921b6044820152606401610213565b6005546001600160a01b03166108795760405162461bcd60e51b815260206004820152601060248201526f11d85b59481b9bdd081cdd185c9d195960821b6044820152606401610213565b60025460065461088991906114bc565b4210156108d85760405162461bcd60e51b815260206004820152601760248201527f54696d652077696e646f77206e6f7420657870697265640000000000000000006044820152606401610213565b6000600454116109215760405162461bcd60e51b81526020600482015260146024820152734e6f20706f7420746f206469737472696275746560601b6044820152606401610213565b6005546004546003546001600160a01b0390921691600060646109458460286114e8565b61094f91906114ff565b90506000606461096085601e6114e8565b61096a91906114ff565b90506000606461097b8660196114e8565b61098591906114ff565b9050600060646109968760056114e8565b6109a091906114ff565b905060006007541180156109b45750600082115b15610a065781600a60008282546109cb91906114bc565b90915550506007546109e583670de0b6b3a76400006114e8565b6109ef91906114ff565b600b6000828254610a0091906114bc565b90915550505b6000876001600160a01b03168560405160006040518083038185875af1925050503d8060008114610a53576040519150601f19603f3d011682016040523d82523d6000602084013e610a58565b606091505b5050905080610aa05760405162461bcd60e51b815260206004820152601460248201527315da5b9b995c881c185e5bdd5d0819985a5b195960621b6044820152606401610213565b60405160009061dead9086908381818185875af1925050503d8060008114610ae4576040519150601f19603f3d011682016040523d82523d6000602084013e610ae9565b606091505b5050905080610b285760405162461bcd60e51b815260206004820152600b60248201526a109d5c9b8819985a5b195960aa1b6044820152606401610213565b600d546040516000916001600160a01b03169085908381818185875af1925050503d8060008114610b75576040519150601f19603f3d011682016040523d82523d6000602084013e610b7a565b606091505b5050905080610bbc5760405162461bcd60e51b815260206004820152600e60248201526d11195d881999594819985a5b195960921b6044820152606401610213565b604080518881526020810188905290810186905260608101859052608081018990526001600160a01b038b16907ffdaf3a65e6ef520453e503b9704ecb2b848d82585bcfaca4765e83ccc497b5fa9060a00160405180910390a2610c1e6113a6565b505050505050505050506107d96001600055565b610c3a611252565b6107d96000611412565b610c4c611252565b600d805460ff60a01b1916600160a01b1790556040517f9e87fac88ff661f02d44f95383c817fece4bce600a3dab7a54406878b965e75290600090a1565b610c92611252565b603c8110158015610ca55750610e108111155b610ce75760405162461bcd60e51b8152602060048201526013602482015272496e76616c69642074696d652077696e646f7760681b6044820152606401610213565b600280549082905560408051828152602081018490527f6c118f466f3e47773b4c9da27f548aafdf212f592e28574f28ecc67ef19cd451910160405180910390a15050565b610d3461127f565b600d54600160a01b900460ff1615610d7f5760405162461bcd60e51b815260206004820152600e60248201526d11d85b59481a5cc81c185d5cd95960921b6044820152606401610213565b66038d7ea4c68000341015610dca5760405162461bcd60e51b815260206004820152601160248201527042656c6f77206d696e696d756d2062757960781b6044820152606401610213565b6000610ddd66038d7ea4c68000346114ff565b905060008111610e2f5760405162461bcd60e51b815260206004820152601760248201527f4d75737420627579206174206c656173742031206b65790000000000000000006044820152606401610213565b610e38336112a9565b3460046000828254610e4a91906114bc565b925050819055508060076000828254610e6391906114bc565b90915550503360009081526008602052604081208054839290610e879084906114bc565b9091555050600580546001600160a01b0319163390811790915542600681905560035460408051348152602081018690529081019290925260608201527f7c531fada30df18f330c3af2af7cd77881636a9c375376f796751e940a49c58d9060800160405180910390a2506107d96001600055565b6001600160a01b0381166000908152600860205260408120548103610f3757506001600160a01b031660009081526009602052604090205490565b6001600160a01b0382166000908152600c6020908152604080832054600b546008909352908320549091670de0b6b3a764000091610f7591906114e8565b610f7f91906114ff565b610f8991906114d5565b6001600160a01b038416600090815260096020526040902054909150610fb09082906114bc565b9392505050565b610fbf611252565b6001600160a01b0381166110075760405162461bcd60e51b815260206004820152600f60248201526e496e76616c6964206164647265737360881b6044820152606401610213565b600d80546001600160a01b038381166001600160a01b0319831681179093556040519116919082907f52882fe9c8937a186eb2653e68b33629cf58f0c3e09b567f0d1db958d3a6c3f090600090a35050565b611061611252565b600d54600160a01b900460ff166110ab5760405162461bcd60e51b815260206004820152600e60248201526d135d5cdd081899481c185d5cd95960921b6044820152606401610213565b6005546001600160a01b03161561110f5760405162461bcd60e51b815260206004820152602260248201527f43616e6e6f7420776974686472617720647572696e67206163746976652067616044820152616d6560f01b6064820152608401610213565b4760006111246001546001600160a01b031690565b6001600160a01b03168260405160006040518083038185875af1925050503d806000811461116e576040519150601f19603f3d011682016040523d82523d6000602084013e611173565b606091505b50509050806111c45760405162461bcd60e51b815260206004820152601960248201527f456d657267656e6379207769746864726177206661696c6564000000000000006044820152606401610213565b5050565b6005546000906001600160a01b03166111e15750600090565b60006002546006546111f391906114bc565b905080421061120457600091505090565b61120e42826114d5565b91505090565b61121c611252565b6001600160a01b03811661124657604051631e4fbdf760e01b815260006004820152602401610213565b61124f81611412565b50565b6001546001600160a01b031633146107d95760405163118cdaa760e01b8152336004820152602401610213565b6002600054036112a257604051633ee5aeb560e01b815260040160405180910390fd5b6002600055565b6001600160a01b03811660009081526008602052604090205415611351576001600160a01b0381166000908152600c6020908152604080832054600b546008909352908320549091670de0b6b3a76400009161130591906114e8565b61130f91906114ff565b61131991906114d5565b9050801561134f576001600160a01b038216600090815260096020526040812080548392906113499084906114bc565b90915550505b505b600b546001600160a01b038216600090815260086020526040902054670de0b6b3a764000091611380916114e8565b61138a91906114ff565b6001600160a01b039091166000908152600c6020526040902055565b600380549060006113b683611521565b909155505060006004819055600580546001600160a01b031916905560068190556007556003546040519081527f1c8a0b49787e246754315485d3c5c82911ce773a537c3a4799580b847f1b05f69060200160405180910390a1565b600180546001600160a01b038381166001600160a01b0319831681179093556040519116919082907f8be0079c531659141344cd1fd0a4f28419497f9722a3daafe3b4186f6b6457e090600090a35050565b60006020828403121561147657600080fd5b81356001600160a01b0381168114610fb057600080fd5b60006020828403121561149f57600080fd5b5035919050565b634e487b7160e01b600052601160045260246000fd5b808201808211156114cf576114cf6114a6565b92915050565b818103818111156114cf576114cf6114a6565b80820281158282048414176114cf576114cf6114a6565b60008261151c57634e487b7160e01b600052601260045260246000fd5b500490565b600060018201611533576115336114a6565b506001019056fea2646970667358221220f67e475d5f7c90a3c0bc5aaa3058a1075d59c9b4e461a9fb9140c053230bc83164736f6c63430008140033",
  "linkReferences": {},
  "deployedLinkReferences": {}
}